:200000000C94D5000C94FD000C94FD000C94FD000C94FD000C94FD000C94FD000C94FD0020
:200020000C94FD000C94FD000C9431060C94A0060C94FD000C94FD000C94FD000C94FD00F5
:200040000C94FD000C94FD000C94FD000C94FD000C94FD000C94FD000C94FD000C94D208DB
:200060000C94FD000C94FD000C94FD000C94FD000C94FD000C94FD000C94FD000C94FD0098
:200080000C94FD000C94FD000C94FD000C94FD000C94FD000C94FD000C94FD000C94FD0078
:2000A0000C94FD000C94FD000C94FD0000000000240027002A002D0030000000000200098C
:2000C0000F0000030401000C0000000000000000000000000000000000080B0002020200E4
:2000E00000090400000102020000052400100105240101010424020605240600010705819B
:200100000310004009040100020A000000070502024000000705830240000004030904122B
:20012000010002EF0201404123368000010102030141726475696E6F204C4C430041726484
:2001400075696E6F204C656F6E6172646F00070605040100080A0B0C0D09040802011040DB
:20016000804010204080408008020401804020100201108010204040200000000025002860
:20018000002B002E0031000404040404030405020202020403020202020606060606060476
:2001A0000402020204044F097C0C11241FBECFEFDAE0DEBFCDBF11E0A0E0B1E0E2EBFDE1ED
:2001C00002C005900D92A434B107D9F721E0A4E4B1E001C01D92A43EB207E1F710E0C4ED2B
:2001E000D0E004C02197FE010E94930DC33DD107C9F70E94CB090C94CC0E0C9400008F9249
:200200009F92AF92BF92CF92DF92EF92FF92CF932091CC013091CD0182179307E8F54B016C
:20022000AA24BB24C82DC52ED62EE72EFF24BC2DA42F2091D201222361F0829E4001112481
:20024000C92D2C9D60011124BD2D249FF0011124AF2FE091D801E090D301F090D4013091F4
:20026000D501E31323C09C01220F331F820F931F8E0D9F1DE091D501E80FF92FF11DC0835E
:20028000E091D601E80FF92FF11DB0832091D701820F911DFC01A083CF91FF90EF90DF90F1
:2002A000CF90BF90AF909F908F900895880F991F880F991F8E0D9F1D472F55276627772754
:2002C000222349F030E0249F7001259FF00C349FF00C11244F2DE80FF92FF11D4083CACF93
:2002E000FC0180917901882311F13FB7F89482E08093E9002091F200822F90E018161906D8
:2003000014F481E090E0882339F0289844E6409378014091F1004083222339F02091F20064
:20032000211103C02BE62093E8003FBF08958FEF9FEF08952FB7F89483E08093E9009091E6
:20034000E800892F807295FF04C09091F20080E4891B2FBF08958091700181110DC082E0CA
:2003600080936C0184E080936D0110926F0110926E0181E0809370018CE691E008954091BF
:200380004F015091500120914D0130914E0142175307B4F49091E8009570E1F39091E80086
:2003A00092FD19C08093F10080914F019091500101968F739927892B19F48EEF8093E8006C
:2003C00080914F019091500101969093500180934F0181E0089580E00895DF92EF92FF925E
:2003E0000F931F93CF93DF93D82E8A01EB017B01E40EF51ECE15DF0559F0D7FE12C0FE0121
:2004000084910E94BF0121968111F4CF0FEF1FEFC801DF91CF911F910F91FF90EF90DF90E7
:2004200008958881EECF0F931F93CF93DF931F92CDB7DEB782E0898342E450E069ED70E0FD
:2004400080E80E94ED010E94AB01DC0112960D911C910115110589F0D801ED91FC9102807B
:20046000F381E02DBE016F5F7F4FC801099597FD04C0F80100851185ECCF89810F90DF91F9
:20048000CF911F910F910895615030F02091F100FC0120830196F8CF289884E680937801E8
:2004A0000895CF93DF931F92CDB7DEB76983DC01ED91FC910280F381E02D41E050E0BE011A
:2004C0006F5F7F4F09950F90DF91CF91089583E08093E9008091F200882319F08AE3809340
:2004E000E80008950E949A0190E00895CF93DF931F92CDB7DEB7FC018485958597FD08C013
:200500002FEF3FEF358724870F90DF91CF910895CE0101960E947001019719F4898190E084
:20052000F3CF8FEF9FEFF0CF0F931F93CF93DF931F92CDB7DEB78C01FC018485958597FFF9
:200540000BC0CE0101960E947001019771F4898190E0F80195878487F801848595850F9005
:20056000DF91CF911F910F9108958FEF9FEFF1CFFC018485958597FD0BC09FB7F89482E02F
:200580008093E9008091F2009FBF90E0019608959FB7F89482E08093E9008091F2009FBFB9
:2005A00090E00895282F30E0F901E654FF4F9491F901E65AFE4F849129573E4FF9012491C8
:2005C000222309F430C09923E9F091509F30D0F4E92FF0E0E251FD4F0C94930D1C032003F7
:2005E000FD0214031803020302030203230329032D033103370302033B03909180009F77D1
:2006000090938000E22FF0E0EE0FFF1FE758FE4FA591B4919FB7F894EC91611132C080955C
:200620008E238C939FBF0895909180009F7DE8CF90918000977FE4CF94B59F7794BDE2CFB0
:2006400094B59F7DFBCF909190009F7790939000D9CF909190009F7DF9CF90919000977FED
:20066000F5CF9091C0009F779093C000CBCF9091C0009F7DF9CF9091C200977F9093C2009F
:20068000C1CF8E2BCECFCF93DF9390E0FC01E65AFE4F249189579E4FFC0184918823C9F0AE
:2006A00090E0880F991FFC01E455FF4FA591B491FC01E758FE4FC591D49161110DC09FB7A3
:2006C000F8948C91209582238C938881282328839FBFDF91CF910895623051F49FB7F89475
:2006E0003C91822F809583238C93E8812E2BEFCF8FB7F894EC912E2B2C938FBFEACF8F9293
:200700009F92AF92BF92DF92EF92FF920F931F93CF93DF93D82E8B01812C912C5401F12CFD
:20072000E12CCEEEC80FD0E0C25BDE4F62E08D2D0E94430380917C008F6180937C0080911E
:200740007A00806480937A0080917A0086FDFCCF60E08D2D0E944303FE01849120917B00B3
:20076000982F990F990F90722F7D922B90937B008770806480937C0080917A00806480936D
:200780007A0080917A0086FDFCCF8091780090917900092E000CAA0BBB0B880E991EAA1E10
:2007A000BB1EFFEFEF1AFF0A0E151F0509F0BECF9801110F440B550BC501B4010E94300DD1
:2007C000C901DF91CF911F910F91FF90EF90DF90BF90AF909F908F9008953FB7F8948091A6
:2007E000490190914A01A0914B01B0914C0126B5A89B05C02F3F19F00196A11DB11D3FBFBD
:20080000BA2FA92F982F8827BC01CD01620F711D811D911D42E0660F771F881F991F4A9560
:20082000D1F708950F931F93CF93DF93CDB7DEB729970FB6F894DEBF0FBECDBF8091D30126
:200840009091D401892B09F47CC00E94ED030091D9011091DA012091DB013091DC0160179A
:2008600071078207930740F46093D9017093DA018093DB019093DC010091D9011091DA0128
:200880002091DB013091DC01601B710B820B930B6C32714081059105C0F2F8948091CE0182
:2008A0009091CF019A838983E091D301F091D401DF011196808189879091CA01E091DD01B0
:2008C000F091DE018091DF01992309F445C09081982B98879081809589238F838F818C8313
:2008E00088E08B8358856F8149853B812C8189819A81508347FD252F3A952083262F39F0FE
:20090000441F00C000006083000000C0F2CF38E04D9160830000019761F7F093DE01E093B2
:20092000DD0149873B832C839A83898378940E94ED036093D9017093DA018093DB01909318
:20094000DC0129960FB6F894DEBF0FBECDBFDF91CF911F910F9108959081982B98879081F3
:20096000809589238F838F818E8388E08D8358856F8149853D812E8189819A81508347FDC7
:20098000252F00C000C0208300C000C000C000C000C060830000262F3A9541F0441F000085
:2009A00000C000C000C000C000C0E8CF38E04D9100C0608300C0019709F7F093DE01E093FA
:2009C000DD0149873D832E83AFCF8F929F92AF92BF92CF92DF92EF92FF924B015C010E9467
:2009E000ED036B017C010E94ED036C197D098E099F09683E734081059105A8F321E0821A95
:200A00009108A108B10888EEC80E83E0D81EE11CF11C81149104A104B10429F7FF90EF907A
:200A2000DF90CF90BF90AF909F908F9008958F929F92AF92BF92CF92DF92EF92FF920F9305
:200A40001F93CF93DF936C017B018A0180910B01882309F45CC080917901882309F457C071
:200A60008091530180FF05C08091E00082608093E000E801B12C8AEFA82E93E0892E2AE3BB
:200A8000922E209711F4BB20D9F10E949A0181110AC0AA94AA20D9F161E070E080E090E069
:200AA0000E94E504EECF8C171D0611F00CF08C2F9FB7F8948092E9002091E80025FD02C016
:200AC0009FBFDFCF282F30E0C21BD30BF701815020F041914093F100FACFE20EF31EBB20D4
:200AE00021F09092E800B12CEBCF8091E80085FDE7CF9092E800BB24B394209709F3F3CF6E
:200B00005D9884E680935201101611063CF081E090E0F6019383828310E000E0C801DF91BB
:200B2000CF911F910F91FF90EF90DF90CF90BF90AF909F908F900895AF92BF92CF92DF924C
:200B4000EF92FF920F931F93CF93E62F9C01AAEFB5E00E94840DDC01CB019058AF4FBF4F1D
:200B6000CD01BB2797FDB095AB2F382F8E3F21E0920708F057C08F3F910508F46FC05EEF59
:200B8000581BC0E03FEF042F10E00F5F1F4FAE2EB12C8FEFA81AB80AE095F0E03A9DC0017D
:200BA0003B9D900D1124292F33272E0F3F1FD8010E94990D6B017C01CC24EE24FF24CA9DA8
:200BC0009001CB9D300D1124232F33272E0F3F1F0E94990D672F782F892F9927C62AD72A75
:200BE000E82AF92A5A9D90015B9D300D1124232F33272E0F3F1F0E94990D982F872F762F1D
:200C000066276627772799276C297D298E299F29CF911F910F91FF90EF90DF90CF90BF90C7
:200C2000AF9008958C3F23E0920760F4C2E0C80F3FEF8D3F22E0920718F03CEF381BCFEFCB
:200C400050E0A1CFCAEFC81B30E08B3F24E0920730F454E0580FCFEF30E095CFC0E05FEF02
:200C600092CF1F920F920FB60F9211248F939F938091E1009091E100937F9093E10083FF46
:200C80000FC01092E90091E09093EB001092EC0092E39093ED001092790198E09093F000C1
:200CA00082FF22C093E09093E9009091F200992319F09AE39093E80090915201992341F091
:200CC00090915201915090935201911101C05D9A90917801992341F09091780191509093CA
:200CE0007801911101C0289A84FF18C08091E2008E7E81608093E2008091E1008F7E809314
:200D0000E100809153018E7E8061809353019F918F910F900FBE0F901F90189580FFF7CF3D
:200D20008091E2008E7E80618093E2008091E1008E7E8093E100809153018E7E8160E5CFE6
:200D40001F920F920FB60F921124CF92DF92EF92FF920F931F932F933F934F935F936F9304
:200D60007F938F939F93AF93BF93EF93FF93CF93DF93CDB7DEB76C97DEBFCDBF1092E900C1
:200D80008091E80083FF25C068E0CE0145960E94440282EF8093E8008D8987FF39C09091F7
:200DA000E80090FFFCCF982F907609F034C19E894F89588D2F89F88C911131C0803861F575
:200DC000809154018093F1001092F1008EEF8093E8006C960FB6F894DEBF0FBECDBFDF91E5
:200DE000CF91FF91EF91BF91AF919F918F917F916F915F914F913F912F911F910F91FF9054
:200E0000EF90DF90CF900F900FBE0F901F9018959EEF9093E800C7CF1092F100D5CF9130F8
:200E200059F48111D3CF4130510581F6809154018D7F80935401CACF933049F48111C6CF59
:200E40004130510519F6809154018260F2CF953041F48091E80080FFFCCF20682093E30058
:200E6000B5CF963009F0A9C00B8D1C8D22E01092E9001092500110924F01F2122EC010927F
:200E80004E0110924D010E9413021F8299E09983FA8291E09E8390EA98879AEF9987209125
:200EA0004F0130915001275F3F4F3C832B838D831092E9001092500110924F0110934E01DD
:200EC00000934D0149E050E0BE016F5F7F4F80E00E94ED010E94130279CF10934E01009309
:200EE0004D010E94AB01DC0112960D911C910115110509F451C1D801ED91FC910480F5816D
:200F0000E02DBE016B5E7F4FC8010995009709F03EC1F80100851185EACFF3E0FF120EC0F9
:200F20008F89882309F440C0823061F440E860E18DE391E00E941C09811148CF81E28093BA
:200F4000EB0047CF813029F440E86BE081E391E0F1CF833099F70E94AB01DC011296ED9027
:200F6000FC908E010F5F1F4F6801E114F10479F0D701ED91FC910680F781E02DB801C7014F
:200F80000995080F111DF701E084F184EECFD8011C92F60101900020E9F73197BF016C19C4
:200FA0007D0940E0C601C6CF6BE171E0FB01449150E080E80E94ED0109CF973009F4BECF70
:200FC000983021F481E08093F10000CF993009F0FDCE837009F0B2CFE4E2F1E081E031E0FD
:200FE00096E32191222371F08093E9003093EB00DF0111972C912093EC009093ED008F5F94
:20100000873079F78EE78093EA001092EA008F8980937901DBCE8B8D9C8D1092E9001092EF
:20102000500110924F0190934E0180934D01898D811192C08E899D89913A49F4813209F0AF
:201040007DCF47E050E064E071E080E0B3CF913209F074CF833269F48F89988DB0E0A0E018
:201060008093000190930101A0930201B0930301ADCE803269F48091E80082FFFCCF67E0A4
:2010800084E091E00E9444028BEF8093E8009ECE823209F09BCE8F8980930B01EEEFFFE7A2
:2010A000859194918B3F9C4D51F1E0E0F8E08091040190910501A0910601B0910701803BEF
:2010C0009440A105B105F1F480910B0180FD1AC0EE3F8AE0F80789F587E797E79183808370
:2010E000809160008093510188E19BE00FB6F894A895809360000FBE9093600067CEEEEFD3
:20110000FAE0D5CF808191818737974709F05ECEA895809160008861809360008091510110
:2011200080936000EE3F2AE0F20789F08091FE0A9091FF0A9183808349CE80819181873751
:20114000980751F29093FF0A8093FE0AC5CF1092FF0A1092FE0A3ACE0E94AB01DC011296A2
:201160000D911C910115110509F4E8CED801ED91FC910190F081E02DBE016B5E7F4FC80133
:201180000995811123CEF80100851185EBCF181619060CF41BCED2CEF1E0FF12BECE6FE1CC
:2011A00071E004CF1F920F920FB60F9211242F933F938F939F93AF93BF938091450190912A
:2011C0004601A0914701B09148013091440123E0230F2D3758F50196A11DB11D20934401BE
:2011E0008093450190934601A0934701B09348018091490190914A01A0914B01B0914C0153
:201200000196A11DB11D8093490190934A01A0934B01B0934C01BF91AF919F918F913F9121
:201220002F910F900FBE0F901F90189526E8230F0296A11DB11DD2CFEF92FF920F931F931C
:20124000CF93DF93F82E192FE62E042F81E0860F880F0E94BF0183E00E94BF01CF2DD12F55
:20126000EC0EFD2EF11CCE15DF05B9F007FF13C0FE0184910E94BF01182F80E00E94BF0174
:20128000812321968111EFCFDF91CF911F910F91FF90EF9008958881EDCF81E0F5CF10924C
:2012A0007D0110927C0188EE93E0A0E0B0E080937E0190937F01A0938001B093810186E381
:2012C00091E090937B0180937A018FEF9FEF90938701809386011092CB011092D20110929A
:2012E000D9011092DA011092DB011092DC0181E08093D8018093D5011092D60192E0909356
:20130000D7018093CA0185E190E09093CF018093CE010E94A00D9093D4018093D3010097A7
:2013200089F125E1FC0111922A95E9F787E090E09093CD018093CC0186E090E09093D1017B
:201340008093D0018091CB01882341F061E086E00E94430360E086E00E94D202EDE8F1E09F
:20136000E491F0E0EE0FFF1FE758FE4F859194919093DE018093DD01E0E6F1E0E491E093D4
:20138000DF0108951092CF011092CE011092CD011092CC01D1CFCF93DF93CDB7DEB72C97BE
:2013A0000FB6F894DEBF0FBECDBF789484B5826084BD84B5816084BD85B5826085BD85B58B
:2013C000816085BD80916E00816080936E001092810080918100826080938100809181004C
:2013E0008160809381008091800081608093800080919100826080939100809191008160C8
:2014000080939100809190008160809390008091C10084608093C1008091C10082608093B2
:20142000C1008091C10081608093C1008091C30081608093C3008091C00082608093C00053
:201440008091C20081608093C20080917A00846080937A0080917A00826080937A008091FC
:201460007A00816080937A0080917A00806880937A0010927901109254011092530180916A
:20148000D70081608093D70080EA8093D80089B5806189BD89B5826089BD09B400FEFDCF03
:2014A00061E070E080E090E00E94E5048091D8008F7C80618093D8008091E000807F80937D
:2014C000E0008091E1008E7E8093E1008DE08093E200559A209A61E00E94430360E08DE059
:2014E0000E94D2028FEF9FEF90938701809386018091D0019091D10197FD08C061E00E9411
:20150000430360E08091D0010E94D20281E08093CB0164EF71E082E10E947F039093590105
:201520008093580164EF71E083E10E947F0390935B0180935A0164EF71E084E10E947F03F9
:2015400090935D0180935C0189E691E0EFE5F1E011928E179F07E1F761E08DE00E94D2022B
:201560009CE2492E55245394612C712C20E0222E20E0322E01E0B0906B01B394B0926B01BA
:201580008CE0E7E1F1E0DE01119601900D928A95E1F7E0910C01F0E0E25DFE4FA080CE01D0
:2015A00001964C018FE5E82E81E0F82E2091690130916A012230310541F4E0910C01E330A1
:2015C00020F4F0E0E25DFE4FA1806701F7018081A81610F481508083F70180818A1510F4E7
:2015E0008F5F80832230310590F40E94D80CA30192010E94300D672B682B692B41F4E091F3
:201600000C01F0E0E65DFE4F8081F701808310915E019AEF113F20F4912F1B1508F49B2DC0
:20162000FFEFEF1AFF0AF6014081411708F4412FC0906901D0906A01F1E0CF16D10409F421
:20164000907E6FEF80E00E949C05AB01BC01F401819191914F010E94FF00F2E0CF16D1046C
:2016600009F00FC180916B018F5F80936B0184E1B80E61E070E080E090E00E94E504E5E6D5
:20168000EE16E1E0FE0609F091CFF0906B014F2DF7FCFAC060E090E080E00E949C05AB0114
:2016A000BC0190E080E00E94FF00173E60F04FEF6FEF80E09BEF0E949C05AB01BC0190E0B5
:2016C00080E00E94FF00F2E0CF16D10461F44FEF6FEF80E09F2D0E949C05AB01BC0190E044
:2016E00080E00E94FF006AE070E082E10E947F0320915801309159015C01A21AB30A6AE083
:2017000070E083E10E947F0320915A0130915B016C01C21AD30A6AE070E084E10E947F037F
:2017200020915C0130915D017C01E21AF30A83E3A816B1040CF4B9C080915501811138C0C3
:2017400060E08DE00E94D20280910C0181119EC000930C01E0910C01F0E0E25DFE4F8081DD
:2017600080935F0180936001809361018093620180936301809364018093650180936601B5
:201780004091CE015091CF0170E060E08091D3019091D4010E94C50E0E94120468E070E0C8
:2017A00080E090E00E94E50461E08DE00E94D20200935501F3E3CF16D1040CF479C060E0B8
:2017C0008DE00E94D2021F3F49F468EC70E080E090E00E94E50488EC80935E0180915E0136
:2017E000893F18F48B5F80935E0180915E018F3F19F08F5F80935E010093560193E3E916B3
:20180000F1040CF476C080915701811129C060E08DE00E94D2028091690190916A010097F8
:2018200009F059C0E1E0F0E0F0936A01E09369014091CE015091CF0170E060E08091D30174
:201840009091D4010E94C50E0E94120464E170E080E090E00E94E50461E08DE00E94D20251
:20186000009357010E9412046FE070E080E090E00E94E5042114310409F47DCE0E94000077
:201880007ACE98E2B90EFBCE409504CF813021F492E090930C015ECF823021F4E3E0E093BC
:2018A0000C0158CF10920C0155CF1092550182CF61E08DE00E94D2021D3018F01C50109350
:2018C0005E0180915E01882319F0815080935E011092560193CF019739F482E090E090932D
:2018E0006A0180936901A4CF10926A01109269019FCF10925701B6CF8091D3019091D401AC
:201900000E943C0E8091D0019091D10197FD03C060E00C94430308958F929F92AF92BF9208
:20192000CF92DF92EF92FF92CF93DF93EC01688179818A819B81611571058105910521F4DB
:2019400064E279ED8BE597E02DE133EF41E050E00E94300D49015A019B01AC01A7EAB1E480
:201960000E944F0D6B017C01ACEEB4EFA50194010E945D0DC60ED71EE81EF91EF7FE06C05B
:2019800081E0C81AD108E10880E8F80AC882D982EA82FB82C701B6019F77DF91CF91FF9056
:2019A000EF90DF90CF90BF90AF909F908F9008958F929F92AF92BF92CF92DF92EF92FF9299
:2019C00060910D0170910E0180910F0190911001611571058105910521F464E279ED8BE56C
:2019E00097E02DE133EF41E050E00E94300D49015A019B01AC01A7EAB1E40E944F0D6B0192
:201A00007C01ACEEB4EFA50194010E945D0DC60ED71EE81EF91EF7FE06C081E0C81AD10808
:201A2000E10880E8F80AC0920D01D0920E01E0920F01F0921001C701B6019F77FF90EF90CA
:201A4000DF90CF90BF90AF909F908F90089560930D0170930E0180930F0190931001089538
:201A6000052E97FB1EF400940E94470D57FD07D00E94620D07FC03D04EF40C94470D5095D8
:201A80004095309521953F4F4F4F5F4F089590958095709561957F4F8F4F9F4F08950E9471
:201AA000840DA59F900DB49F900DA49F800D911D11240895B7FF0C944F0D0E944F0D821B27
:201AC000930B0895A1E21A2EAA1BBB1BFD010DC0AA1FBB1FEE1FFF1FA217B307E407F50772
:201AE00020F0A21BB30BE40BF50B661F771F881F991F1A9469F760957095809590959B0114
:201B0000AC01BD01CF010895A29FB001B39FC001A39F700D811D1124911DB29F700D811D3C
:201B20001124911D0895EE0FFF1F0590F491E02D09940E94840DB7FF0895821B930B0895E8
:201B40000F931F93CF93DF938230910510F482E090E0E091E201F091E30130E020E0B0E0E6
:201B6000A0E0309799F42115310509F44AC0281B390B24303105D8F58A819B81611571052D
:201B800089F1FB0193838283FE0111C0408151810281138148175907E0F04817590799F45F
:201BA000109761F012960C93129713961C933296CF01DF91CF911F910F9108950093E2011A
:201BC0001093E301F4CF2115310551F04217530738F0A901DB019A01BD01DF01F801C1CFEB
:201BE000EF01F9CF9093E3018093E201CDCFFE01E20FF31F81939193225031093983288347
:201C0000D7CF2091E0013091E101232B41F420911301309114013093E1012093E0012091E1
:201C20001101309112012115310541F42DB73EB74091150150911601241B350BE091E00194
:201C4000F091E101E217F307A0F42E1B3F0B2817390778F0AC014E5F5F4F2417350748F069
:201C60004E0F5F1F5093E1014093E001819391939FCFF0E0E0E09CCFCF93DF930097E9F02B
:201C8000FC01329713821282A091E201B091E301ED0130E020E01097A1F420813181820FFE
:201CA000931F2091E0013091E1012817390709F061C0F093E101E093E001DF91CF9108957E
:201CC000EA01CE17DF07E8F54A815B819E0141155105B1F7E901FB83EA8349915991C40F6B
:201CE000D51FEC17FD0761F4808191810296840F951FE90199838883828193819B838A834F
:201D0000F0E0E0E012968D919C9113970097B9F52D913C911197CD010296820F931F2091C4
:201D2000E0013091E1012817390739F6309751F51092E3011092E201B093E101A093E00120
:201D4000BCCFD383C28340815181840F951FC817D90761F44E5F5F4F88819981480F591F22
:201D6000518340838A819B81938382832115310509F0B0CFF093E301E093E2019ECFFD017E
:201D8000DC01C0CF13821282D7CFDC0101C06D9341505040E0F7089510E0C4EDD0E004C0C0
:201DA000FE010E94930D2196C53DD107C9F7F894FFCFFFFFFFFF00E1000000000000010158
:201DC0000000000000E401800006000500040001000200030000C1808100000028419BFFC4
:201DE0000A1941AF000000005102170572026702B80276029402FFFFFFFFFFFFFFFFFFFFC6
:201E0000FFFFFFFFFFFFFFFFFFFFFFFFFFFFFFFFFFFFFFFFFFFFFFFFFFFFFFFFFFFFFFFFE2
:201E2000FFFFFFFFFFFFFFFFFFFFFFFFFFFFFFFFFFFFFFFFFFFFFFFFFFFFFFFFFFFFFFFFC2
:201E4000FFFFFFFFFFFFFFFFFFFFFFFFFFFFFFFFFFFFFFFFFFFFFFFFFFFFFFFFFFFFFFFFA2
:201E6000FFFFFFFFFFFFFFFFFFFFFFFFFFFFFFFFFFFFFFFFFFFFFFFFFFFFFFFFFFFFFFFF82
:2070000055C000006EC000006CC000006AC0000068C0000066C0000064C0000062C0000043
:2070200060C000005EC00000F2C400005AC0000058C0000056C0000054C0000052C00000EE
:2070400050C0000078C000004CC000004AC0000048C0000046C0000044C0000042C00000BE
:2070600040C000003EC000003CC000003AC0000038C0000036C0000034C0000032C0000048
:2070800030C000002EC000002CC000002AC0000028C0000026C0000024C0000022C00000A8
:2070A00020C000001EC000001CC0000011241FBECFEFDAE0DEBFCDBF11E0A0E0B1E0E2E3BC
:2070C000FFE702C005900D92A83AB107D9F711E0A8EAB1E001C01D92AE3BB107E1F78FD30B
:2070E00026C78ECFF89410926F0010928100109285001092840081E085BF15BE47985D9AEB
:20710000289A0C94000008952091B2013091B3012F5F3F4F3093B3012093B201932F37FFA6
:2071200003C08EEF831B982F990F921710F447980895479A08951F920F920FB60F9211246E
:207140002F938F939F93EF93FF9310928500109284008091A8019091A901009741F00197D3
:207160009093A9018093A801892B09F45D9A8091AA019091AB01009741F001979093AB0126
:207180008093AA01892B09F4289AE0E0F0E0859194918F5F9F4F49F08091AC019091AD0151
:2071A00001969093AD018093AC01FF91EF919F918F912F910F900FBE0F901F90189584E0BC
:2071C0008093E9000DC08091E8008B778093E80003C08EB3882351F08091E80082FFF9CFBE
:2071E0008091E80085FFEFCF8091F1000895982F83E08093E9008091E80085FD0DC0809136
:20720000E8008E778093E80003C08EB3882369F08091E80080FFF9CF9093F1005D9884E6CB
:2072200090E09093A9018093A80108954F925F926F927F928F929F92AF92BF92CF92DF921E
:20724000EF92FF920F931F93CF93DF9384E08093E9008091E80082FF57C2289884E690E067
:207260009093AB018093AA01AADF182F853481F48CE49DE19093AD018093AC0107B600FC4B
:20728000FDCFF999FECF81E180935700E89503C0843519F494DF8DE00DC28C34E1F38035F9
:2072A000D1F3843721F484E4A2DF80E003C2813611F489E5FFC18134B1F481DF182F7FDFE3
:2072C00090E0880F991FAA2797FDA095BA2F312F330F20E0442737FD4095542F822B932B68
:2072E000A42BB52BB8C1803711F483E5E3C1833549F4C0E0D1E089917ADF21E0C730D20714
:20730000D1F7D9C1863521F481E371DF80E3D2C1833731F487E86BDF85E969DF8EE1CAC149
:207320008536B9F4E0E0F0E093E085E090935700E89507B600FCFDCF80935700E89507B65D
:2073400000FCFDCFE058FF4FA0E7E030FA0771F7A2CF823739F4E1E0F0E089E08093570024
:207360008491A8C1863439F4E0E0F0E089E08093570084919FC18E3439F4E3E0F0E089E0E5
:2073800080935700849196C1813539F4E2E0F0E089E08093570084918DC1823631F489E521
:2073A00026DF80E024DF80E885C1823419F0873609F0E5C01092AD011092AC0100DF082FE8
:2073C000FEDEF82EFCDE682E8554823008F071C1902F80E0CF2DD0E0C82BD92B10926F00B3
:2073E000173609F04BC081E180935700E895DD24CC24C3943FC0E090AE01F090AF010091CC
:20740000B0011091B101B6E46B16D9F4ED2DF0E0EE29FF29E4918E2FEADEDD2081F082E08D
:2074200090E0A0E0B0E0E80EF91E0A1F1B1FE092AE01F092AF010093B0011093B101DC2470
:2074400018C0D801C701B695A7959795879559D5CEDE82E090E0A0E0B0E0E80EF91E0A1FF2
:207460001B1FE092AE01F092AF010093B0011093B1012197209709F0BECF7DC08090AE01F5
:207480009090AF01A090B001B090B10196E4691609F05DC083E0F40180935700E89507B63E
:2074A00000FCFDCF54C0F6E46F1661F5772031F1E090AE01F090AF010091B0011091B1019E
:2074C0007EDED82ECC24852D90E08C299D29F7010C0140925700E895112482E090E0A0E08B
:2074E000B0E0E80EF91E0A1F1B1FE092AE01F092AF010093B0011093B10102C060DE582E1A
:20750000742423C0E090AE01F090AF010091B0011091B10116950795F794E79450DE682FFA
:20752000C701F7D48091AE019091AF01A091B001B091B1010296A11DB11D8093AE01909349
:20754000AF01A093B001B093B101219704C05524772444244394209709F0A5CF96E46916B6
:2075600041F485E0F40180935700E89507B600FCFDCF8DE03CDE82E080936F009CC0833492
:2075800071F40091AE011091AF0119DE90E021E0F8010C0120935700E89511247CCE8336C8
:2075A00019F5E090AE01F090AF010091B0011091B10105DEF701E16090E021E00C0120938C
:2075C0005700E895112482E090E0A0E0B0E0E80EF91E0A1F1B1FE092AE01F092AF0100936A
:2075E000B0011093B10157CE8D3661F4E091AE01F091AF0185E080935700E89507B600FCF2
:20760000FDCF49CE823551F4E091AE01F091AF0105911491812FEBDD802F4CC0843421F5FE
:20762000E090AE01F090AF010091B0011091B10116950795F794E794C2DD682FC70169D4DE
:207640008091AE019091AF01A091B001B091B1010296A11DB11D8093AE019093AF01A093D8
:20766000B001B093B10117CE843609F5E090AE01F090AF010091B0011091B101D801C70142
:20768000B695A795979587953CD4B1DD82E090E0A0E0B0E0E80EF91E0A1F1B1FE092AE010A
:2076A000F092AF010093B0011093B10104C08B3111F08FE39CDD83E08093E9009091E8002B
:2076C0008091E8008E778093E80095FF04C010C08EB38823C9F08091E80080FFF9CF809193
:2076E000E8008E778093E80003C08EB3882361F08091E80080FFF9CF84E08093E9008091F1
:20770000E8008B778093E800DF91CF911F910F91FF90EF90DF90CF90BF90AF909F908F90AC
:207720007F906F905F904F9008959091B601892F8F77813249F58091B7018032A1F081328A
:2077400019F5913A09F58091E800877F8093E8008DE091E067E070E00BD28091E8008B770B
:207760008093E8000895913279F48091E800877F8093E8008DE091E067E070E05DD2809192
:20778000E8008E778093E800089582E061EC42E0B5D083E061E842E1B1D084E060E842E1EF
:2077A000ADC084B7877F84BF88E10FB6F89480936000109260000FBE20E880E090E00FB63F
:2077C000F89420936100809361000FBE81E085BF92E095BF3F9A209A559AE1E6F0E02083A1
:2077E000108247985D9A289A109289008AEF8093880090936F0083E080938100F0C0409116
:20780000000850910108109201081092000894B714BE88E10FB6F8948093600010926000D5
:207820000FBE292F30E0F901E270F07091FD18C090FF05C0859194918F5F9F4F81F423FFFF
:207840000FC08091090190910A014817590741F0E0E0F0E0859194918F5F9F4F09F042DC64
:20786000A0DF78941092AD011092AC010CC0DEDC36D38091AC019091AD0181549F4110F00D
:207880001092140141DC80911401882381F78091E00081608093E00025DC80E090E0089598
:2078A000FA01923049F0933061F09130F9F485E191E022E130E01EC087E291E02EE330E04D
:2078C00019C0882329F485E691E024E030E012C0813029F489E691E022E230E00BC0823006
:2078E00029F48DE891E028E130E004C080E090E020E030E091838083C90108958093E9004E
:207900008091EB0081608093EB001092ED006093EC004093ED008091EE00881F8827881F62
:2079200008958091B60188238CF403C08EB38823B1F08091E80082FFF9CF8091E8008B772A
:207940008093E80008958EB3882349F08091E80080FFF9CF8091E8008E778093E800089594
:20796000EF92FF920F931F9345D04CD008ED10E0F80180818F77808380818068808380819B
:207980008F7D808319BC1EBA1092B40180EEE82EF12CF70180818B7F8083F8018081816052
:2079A000808380E060E042E0A9DFE1EEF0E080818E7F8083E2EEF0E0808181608083808144
:2079C00088608083F70180818E7F8083F8018081806180831F910F91FF90EF900895E7ED06
:2079E000F0E08081816080838AE482BF81E08093B501B6CFE8EDF0E080818E7F808310921C
:207A0000E20008951092DA001092E10008951F920F920FB60F9211242F933F934F935F93F6
:207A20006F937F938F939F93AF93BF93EF93FF938091DA0080FF1BC08091D80080FF17C0B2
:207A40008091DA008E7F8093DA008091D90080FF0BC080E189BD82E189BD09B400FEFDCF36
:207A600081E08EBB3BD203C019BC1EBA37D28091E10080FF17C08091E20080FF13C0809138
:207A8000E2008E7F8093E2008091E20080618093E2008091D80080628093D80019BC85E049
:207AA0008EBB1CD28091E10084FF2CC08091E20084FF28C080E189BD82E189BD09B400FEC5
:207AC000FDCF8091D8008F7D8093D8008091E1008F7E8093E1008091E2008F7E8093E20012
:207AE0008091E20081608093E2008091B401882331F48091E30087FD02C081E001C084E067
:207B00008EBBECD18091E10083FF21C08091E20083FF1DC08091E100877F8093E10082E06A
:207B20008EBB1092B4018091E1008E7F8093E1008091E2008E7F8093E2008091E2008061E9
:207B40008093E20080E060E042E0D8DEC7D1FF91EF91BF91AF919F918F917F916F915F9130
:207B60004F913F912F910F900FBE0F901F9018959C014091BC015091BD014617570718F49D
:207B8000F90190E044C06115710511F0AB01F8CF8091E8008E778093E80040E050E0F0CF0F
:207BA0008EB3882309F444C0853009F443C08091E80083FF02C081E008958091E80082FD70
:207BC00031C08091E80080FF22C08091F3009091F200782F60E0292F30E0262B372B07C07A
:207BE00081918093F100415050402F5F3F4F4115510519F02830310598F390E02830310566
:207C000009F491E08091E8008E778093E8004115510531F6992321F605C08EB3882341F075
:207C2000853041F08091E80082FFF7CF80E0089582E0089583E008959C016115710529F47C
:207C40008091E8008B778093E800F90126C08EB3882391F1853091F18091E80083FF02C06C
:207C600081E008958091E80082FFF1CF06C08091F10081936150704059F02091F300809191
:207C8000F200322F20E090E0822B932B892B79F78091E8008B778093E80061157105B9F601
:207CA00005C08EB3882341F0853041F08091E80080FFF7CF80E0089582E0089583E00895C2
:207CC0000F931F93DF93CF9300D0CDB7DEB7E6EBF1E08091F100819381E0EE3BF807C9F792
:207CE00024DD8091E80083FFE4C08091B6019091B701953009F46DC0963040F4913081F1A7
:207D0000913070F0933009F0D4C02AC0983009F4A3C0993009F4B2C0963009F0CAC07CC023
:207D2000803809F4C6C0823809F0C3C08091BA0187708093E9008091EB001092E9002091DB
:207D4000E800277F2093E80090E025E0969587952A95E1F781708093F1001092F10087C0D8
:207D6000882319F0823009F0A4C08F71823009F0A0C08091B801882331F52091BA01277097
:207D800009F497C02093E9008091EB0080FF1BC0933021F48091EB00806213C08091EB0018
:207DA00080618093EB0081E090E002C0880F991F2A95E2F78093EA001092EA008091EB00E5
:207DC00088608093EB001092E9008091E800877F51C0882309F06DC01091B8011F770FB79B
:207DE000F8948091E800877F8093E8009ADD8091E80080FFFCCF8091E3008078812B809398
:207E0000E30080688093E300112311F482E001C083E08EBB0FBF4DC08058823008F049C033
:207E20008091B8019091B9016091BA01AE014F5F5F4F36DDBC01009709F43BC08091E8008E
:207E4000877F8093E80089819A8192DE8091E8008B778093E8002DC0803859F58091E800AA
:207E6000877F8093E8008091B4018093F1008091E8008E778093E80054DD1BC08823C9F4CA
:207E80009091B8019230A8F48091E800877F8093E8009093B40145DD8091B401882331F420
:207EA0008091E30087FD02C081E001C084E08EBB6CDC8091E80083FF0AC08091EB0080624E
:207EC0008093EB008091E800877F8093E8000F900F90CF91DF911F910F91089508951F9360
:207EE0008EB3882361F01091E9001092E9008091E80083FF01C0E4DE17701093E9001F916F
:207F00000895F999FECF92BD81BDF89A992780B50895262FF999FECF1FBA92BD81BD20BDBD
:207F20000FB6F894FA9AF99A0FBE01960895F894FFCF4341544552494E4100777700080031
:207F40000000000000080112011001020000084123360001000201000109023E00020100FF
:207F600080320904000001020201000524001001042402040524060001070582030800FF0C
:207F800009040100020A000000070504021000010705830210000104030904220341007216
:207FA000006400750069006E006F0020004C0065006F006E006100720064006F0000001836
:1A7FC00003410072006400750069006E006F0020004C004C004300000000D7
:00000001FF
